:100000000C944D040C946A040C946A040C946A04D5
:100010000C946A040C946A040C946A040C946A04A8
:100020000C946A040C946A040C946A040C946A0498
:100030000C946A040C946A040C946A040C946A0488
:100040000C946A040C946A040C946A040C946A0478
:100050000C946A040C946A040C946A040C946A0468
:100060000C946A040C946A040C946A040C946A0458
:10007000000000000000005E0000000E000E0028DE
:100080007C287C2808547C542026100864002854BE
:1000900028400000000E0000003C42000000423CEE
:1000A0000000005438540010107C101000806020B4
:1000B0000010101010000060600000201008040004
:1000C000003C423C0000447E40004462524C00220E
:1000D0004A4A360018147E10002E4A4A32003C4A22
:1000E0004A300002621A0600344A4A34000C525266
:1000F0003C00006C6C0000806C2C00000010284458
:1001000000282828280000442810000004520C0071
:100110003C425A1C007C12127C007E4A4A34003C4D
:10012000424224007E42423C007E4A4A42007E0A0D
:100130000A02003C425274007E08087E0000427EA3
:1001400042002040403E007E182442007E40404055
:10015000007E0C0C7E007E0C307E003C42423C0057
:100160007E12120C003C6242BC007E12324C002413
:100170004A52240000027E02003E40403E001E60C3
:10018000601E007E30307E006618186600000E701B
:100190000E0062524A4600007E42420004081020CF
:1001A000000042427E000004020400404040400043
:1001B000000204000030482878007E4848300030B3
:1001C000484800003048487E003068581000107CD5
:1001D00012040050A8A898007E0808700000487A11
:1001E00040000040807A007E1028400000427E409F
:1001F0000078101870007808087000304848300007
:10020000F848483000304848F80078080810005096
:1002100058682800083E48400038404078000038C0
:100220004038007860607800483030480018A040BE
:100230003800486858480000083C420000007E0032
:100240000000423C0800FFFFFFFFFF00000000002D
:100250005C00000C000C007C287C2858DC68002422
:1002600010480028542840000C00000078840084C6
:1002700078000054385400107C10008040000010BA
:100280001010000040000060100C00385438004886
:100290007C40004864580044542C001C107C005CD6
:1002A0005424003854240064140C0068542C004872
:1002B00054380000480000804800001028440028FE
:1002C000282800442810000454080038445C0078B2
:1002D0001478007C542800384428007C4438007C82
:1002E0005444007C140400384474007C107C0044A6
:1002F0007C440020403C007C106C007C4040007C32
:10030000187C0078103C00384438007C1408003811
:1003100044B8007C14680048542400047C04007C29
:10032000407C003C603C007C307C006C106C000C1D
:10033000700C0064544C00007C44000C10600044BD
:100340007C00000804080080808000000408003061
:100350004878007C4830003048480030487C003005
:100360006850001078140090A878007C0870005045
:10037000744000808074007C106800447C400078E9
:100380001078007808700030483000F828100030ED
:1003900048F8007810080050582800083C480038F9
:1003A000407800384038007820780048304800987D
:1003B000A078004868580010788400007C00008411
:1003C00078100008040804000000000000005F002E
:1003D000000007000700147F147F14242A7F2A12CC
:1003E00023130864623649552250000503000000BB
:1003F0001C2241000041221C00082A1C2A0808086F
:100400003E08080050300000080808080800606036
:10041000000020100804023E5149453E00427F4042
:100420000042615149462141454B311814127F1059
:1004300027454545393C4A4949300171090503368C
:1004400049494936064949291E00363600000056FA
:10045000360000000814224114141414144122140C
:1004600008000201510906324979413E7E111111FD
:100470007E7F494949363E414141227F4141221C0C
:100480007F494949417F090901013E414151327F7C
:100490000808087F00417F41002040413F017F085C
:1004A0001422417F404040407F0204027F7F0408C5
:1004B000107F3E4141413E7F090909063E415121DD
:1004C0005E7F09192946464949493101017F0101E9
:1004D0003F4040403F1F2040201F7F2018207F6367
:1004E0001408146303047804036151494543000070
:1004F0007F4141020408102041417F0000040201B5
:100500000204404040404000010204002054545482
:10051000787F484444383844444420384444487F31
:100520003854545418087E090102081454543C7F6E
:100530000804047800447D40002040443D00007FD2
:1005400010284400417F40007C041804787C080493
:10055000047838444444387C1414140808141418DB
:100560007C7C080404084854545420043F44402030
:100570003C4040207C1C2040201C3C4030403C44FF
:10058000281028440C5050503C4464544C440008FB
:1005900036410000007F00000041360800020103E0
:1005A0000201000000000000000000065F5F06007E
:1005B00000000007070007070000147F7F147F7FFB
:1005C0001400242E6B6B3A120000466630180C663D
:1005D0006200307A4F5D377A48000407030000005C
:1005E0000000001C3E63410000000041633E1C000F
:1005F0000000082A3E1C1C3E2A0808083E3E080847
:10060000000000A0E06000000000080808080808DA
:10061000000000006060000000006030180C06035D
:1006200001003E7F594D7F3E000042427F7F4040A7
:100630000000627359496F660000226349497F36A2
:100640000000181C16137F7F1000276745457D3971
:1006500000003C7E4B4979300000036371190F079D
:100660000000367F49497F360000064F49693F1E2A
:10067000000000006C6C0000000000A0EC6C0000AA
:100680000000081C366341000000141414141414F4
:100690000000004163361C080000020351590F0698
:1006A00000003E7F415D5D1F1E007C7E13137E7C3B
:1006B0000000417F7F49497F36001C3E6341416312
:1006C0002200417F7F41637F1C00417F7F495D4164
:1006D0006300417F7F491D0103001C3E634151734C
:1006E00072007F7F08087F7F000000417F7F41000C
:1006F0000000307040417F3F0100417F7F081C7740
:100700006300417F7F41406070007F7F060C067F61
:100710007F007F7F060C187F7F001C3E6341633E95
:100720001C00417F7F49090F06001E3F21717F5E3B
:100730000000417F7F19396F460026674D597B3293
:10074000000003417F7F410300007F7F40407F7FA7
:1007500000001F3F60603F1F00007F7F3018307F28
:100760007F0063771C081C776300074F78784F077A
:1007700000006773594D47637100007F7F4141005E
:1007800000000103060C183060000041417F7F002B
:100790000000080C0603060C080080808080808022
:1007A00080800000030704000000207454543C784B
:1007B0004000413F7F44447C3800387C44446C28EE
:1007C0000000307848493F7F4000387C54545C1822
:1007D0000000487E7F490302000098BCA4A4F87C76
:1007E0000400417F7F08047C780000447D7D400048
:1007F000000040C484FD7D000000417F7F10386C04
:10080000440000417F7F400000007C7C0C180C7C81
:1008100078007C7C04047C780000387C44447C387C
:10082000000084FCF8A4243C1800183C24A4F8FC24
:100830008400447C78441C180000485C54547424A0
:10084000000000043E7F442400003C7C40403C7C8F
:1008500040001C3C60603C1C00003C7C6030607CC4
:100860003C00446C3810386C44009CBCA0A0FC7C5C
:1008700000004C64745C4C64000008083E77414101
:10088000000000000077770000004141773E080833
:100890000000020301030203010011241FBECFEF79
:1008A000D4E0DEBFCDBF11E0A0E0B1E0E2E3F8E1CB
:1008B00002C005900D92A43FB107D9F722E0A4EF42
:1008C000B1E001C01D92A230B207E1F70E946C04B2
:1008D0000C94170C0C9400000E9481040E948F0459
:1008E0000E94B4050E9440060E9439060E94BF067D
:1008F000FFCF5D9BFECF8CB908955F9BFECF8CB17F
:10090000089510BC8FE189B988E18AB986E880BD75
:100910006DE774E089E794E00E944E07089585B77B
:10092000806885BF80B7806280BF0895CF92DF92D4
:10093000EF92FF920F931F93CF93DF938AE091E0A2
:100940009F938F930E9499070E943E077C010E940B
:1009500043070F900F90C12CD12CC0E0D0E002E2F1
:1009600011E00E943E07F601F85E8083208128177F
:10097000A1F099279F938F931F922F93DF92CF928D
:100980001F930F930E94990721968DB79EB70896E3
:100990000FB6F8949EBF0FBE8DBF9FEFC91AD90A3C
:1009A000C11488E0D806E9F6C7010E94430700E0B9
:1009B00010E0E12CF12C0F2EFCE5CF2EF1E0DF2E24
:1009C000F02D0E943E07F801F85E20812817B1F053
:1009D00099279F938F931F922F931F930F93DF92CB
:1009E000CF920E9499079FEFE91AF90A8DB79EB737
:1009F00008960FB6F8949EBF0FBE8DBF0F5F1F4FB6
:100A0000011598E01907E9F6FF92EF92DF93CF9373
:100A10008AE991E09F938F930E9499070F900F901E
:100A20000F900F900F900F90DF91CF911F910F912A
:100A3000FF90EF90DF90CF900895E0E0F4E18083A5
:100A400089EF90E00197F1F700C0000080810895E0
:100A500085E090E00E941D0588235CF024E6820278
:100A6000C00111246DE770E00E94CA068CE9860F70
:100A70000895082E000C990B9C0123583F4F44E623
:100A8000429FC001439F900D11246DE770E00E94CA
:100A9000CA06862F089584E090E00E941D058823F1
:100AA0005CF024E68202C00111246DE770E00E9430
:100AB000CA068CE9860F0895082E000C990B9C013C
:100AC00023583F4F44E6429FC001439F900D11249D
:100AD0006DE770E00E94CA06862F089587E090E0D7
:100AE0000E941D058F3F5CF422E38202C0011124A5
:100AF0006DE770E00E94CA0684E6860F089522E33F
:100B00008202C00111246DE770E00E94CA06862FA0
:100B1000089586E090E00E941D058F3F5CF422E37B
:100B20008202C00111246DE770E00E94CA0684E6CB
:100B3000860F089522E38202C00111246DE770E060
:100B40000E94CA06862F089517BA86B3883031F0FE
:100B5000843031F08C3031F080E0089582E70895E0
:100B60008CE6089582E60895E0E0F0E18EEA808365
:100B700081EA80838AED808382E1808388EC8083B0
:100B800088EA80838FE3808385ED808380E880839B
:100B900081E8808380E5808389ED808381E28083A2
:100BA00080E2808310828BED808380E380838DEAF6
:100BB0008083108284EA808386EA80838FEA808340
:100BC000089580930010089580930012089590E096
:100BD0009C01220F331F220F331F820F931F20E02F
:100BE00030E0805A9109A0E0B2E1FC01E20FF31F6E
:100BF000E059FF4FE491EC932F5F3F4F25303105D3
:100C0000A1F708951F93CF93DF93EC0110E007C085
:100C1000FE01E20FF31F80810E94E7051F5F212F75
:100C200030E0FE0101900020E9F73197EC1BFD0B4D
:100C30002E173F0768F3DF91CF911F910895E0E0F1
:100C4000F0E192E29083808397E0908390E090932C
:100C5000F7018093F6010895E0E0F0E191E29083DE
:100C600080839FE7908390E09093F5018093F40157
:100C7000089580E00E942C0680E00E941F060895DF
:100C800028E030E050E840E0E0E0F2E106C0108209
:100C90000197E9F72150310919F0852F942FF7CFEB
:100CA00008958036910574F08091F6019091F701D6
:100CB000009721F487E00E941F06089581500E944A
:100CC0001F060895813A9F4F74F48091F601909128
:100CD000F7018730910521F480E00E941F060895F6
:100CE0008F5F0E941F0608958B3591057CF08091DF
:100CF000F4019091F5018B37910524F080E00E947A
:100D00002C0608958B5F0E942C060895863A9F4F0B
:100D100074F48091F4019091F5018530910524F4EB
:100D20008FE70E942C06089585500E942C06089596
:100D3000CF93DF930E9451068EE70E94E705C4EF30
:100D4000D1E088810E942C062FE986E891E02150AD
:100D500080409040E1F700C0000080E20E94E7057B
:100D600088810E942C062FE986E891E0215080407E
:100D70009040E1F700C00000DF91CF91089580E03E
:100D80000E941F0680E00E942C0684E795E70E94DF
:100D90000206089597FB072E16F4009407D077FDFE
:100DA00009D00E94DE0607FC05D03EF4909581959F
:100DB0009F4F0895709561957F4F0895AA1BBB1BA7
:100DC00051E107C0AA1FBB1FA617B70710F0A61B4B
:100DD000B70B881F991F5A95A9F780959095BC016C
:100DE000CD0108958F929F92AF92BF92CF92DF92E2
:100DF000EF92FF92CF93DF93EC01688179818A8132
:100E00009B81611571058105910521F464E279EDFD
:100E10008BE597E02DE133EF41E050E00E947D0B40
:100E200049015A019B01AC01A7EAB1E40E949C0B65
:100E30006B017C01ACEEB4EFA50194010E94AA0BFA
:100E4000DC01CB018C0D9D1DAE1DBF1DB7FF03C086
:100E50000197A109B04888839983AA83BB839F77B0
:100E6000DF91CF91FF90EF90DF90CF90BF90AF9048
:100E70009F908F9008950E94F206089580E091E07F
:100E80000E94F2060895A0E0B0E0809300019093E4
:100E90000101A0930201B093030108950F931F93E2
:100EA000CF93DF93009731F46115710519F480E059
:100EB00090E03AC08B01EC016EE070E081E090E0E0
:100EC0000E948109FC01892B91F380E8838301153D
:100ED000110571F01387028781E883838091F801FF
:100EE0009091F901892B21F4F093F901E093F80135
:100EF0002097C9F0D187C0878381826083838091E6
:100F0000FA019091FB01892B71F4F093FB01E093BE
:100F1000FA018091FC019091FD01892B21F4F0935D
:100F2000FD01E093FC01CF01DF91CF911F910F9163
:100F30000895A0E0B0E0EFE9F7E00C94BF0BAE013C
:100F40004B5F5F4FFA0161917191AF018091FA019E
:100F50009091FB010E94AF07E2E00C94DB0BACE048
:100F6000B0E0E5EBF7E00C94AF0B7C016B018A017C
:100F7000FC0117821682838181FFBDC1CE010196DB
:100F80004C01F7019381F60193FD859193FF8191C7
:100F90006F01882309F4ABC1853239F493FD859143
:100FA00093FF81916F01853229F4B70190E00E948F
:100FB000E70AE7CF512C312C20E02032A0F48B320D
:100FC00069F030F4803259F0833269F420612CC02A
:100FD0008D3239F0803339F4216026C022602460DC
:100FE00023C0286021C027FD27C030ED380F3A30DC
:100FF00078F426FF06C0FAE05F9E300D1124532ED0
:1010000013C08AE0389E300D1124332E20620CC0AC
:101010008E3221F426FD6BC1206406C08C3611F49B
:10102000206802C0883641F4F60193FD859193FF54
:1010300081916F018111C1CF982F9F7D955493307D
:1010400028F40C5F1F4FFFE3F9830DC0833631F0A6
:10105000833771F0833509F05BC022C0F8018081CD
:1010600089830E5F1F4F44244394512C540115C0B3
:101070003801F2E06F0E711CF801A080B18026FFEC
:1010800003C0652D70E002C06FEF7FEFC5012C87B4
:101090000E94DC0A2C0183012C852F77222E17C099
:1010A0003801F2E06F0E711CF801A080B18026FFBC
:1010B00003C0652D70E002C06FEF7FEFC5012C8784
:1010C0000E94CA0A2C012C852068222E830123FC51
:1010D0001BC0832D90E048165906B0F4B70180E29A
:1010E00090E00E94E70A3A94F4CFF50127FC85913D
:1010F00027FE81915F01B70190E00E94E70A31105D
:101100003A94F1E04F1A51084114510471F7E5C0C7
:10111000843611F0893639F5F80127FF07C0608160
:101120007181828193810C5F1F4F08C06081718142
:10113000072E000C880B990B0E5F1F4F2F76722E17
:1011400097FF09C090958095709561957F4F8F4F5F
:101150009F4F2068722E2AE030E0A4010E941F0BEE
:10116000A82EA81844C0853729F42F7EB22E2AE075
:1011700030E025C0F22FF97FBF2E8F36C1F018F472
:10118000883579F0B4C0803719F0883721F0AFC0C6
:101190002F2F2061B22EB4FE0DC08B2D8460B82E8F
:1011A00009C024FF0AC09F2F9660B92E06C028E010
:1011B00030E005C020E130E002C020E132E0F8017B
:1011C000B7FE07C060817181828193810C5F1F4FE0
:1011D00006C06081718180E090E00E5F1F4FA40126
:1011E0000E941F0BA82EA818FB2DFF777F2E76FEDE
:1011F0000BC0372D3E7FA51450F474FE0AC072FC5C
:1012000008C0372D3E7E05C0BA2C372D03C0BA2C3E
:1012100001C0B52C34FF0DC0FE01EA0DF11D808127
:10122000803311F4397E09C032FF06C0B394B39401
:1012300004C0832F867809F0B39433FD13C030FFC8
:1012400006C05A2CB31418F4530C5B18B32CB31407
:1012500068F4B70180E290E03C870E94E70AB3940B
:101260003C85F5CFB31410F43B1801C0312C34FF8A
:1012700012C0B70180E390E03C870E94E70A3C85FA
:1012800032FF17C031FD03C088E790E002C088E557
:1012900090E0B7010CC0832F867859F031FF02C06F
:1012A0008BE201C080E237FD8DE2B70190E00E9441
:1012B000E70AA51438F4B70180E390E00E94E70A3A
:1012C0005A94F7CFAA94F401EA0DF11D8081B70179
:1012D00090E00E94E70AA110F5CF332009F451CE27
:1012E000B70180E290E00E94E70A3A94F6CFF70156
:1012F0008681978102C08FEF9FEF2C96E2E10C94DC
:10130000CB0B0F931F93CF93DF93869F8001879F13
:10131000100D969F100D1124C8010E949D09EC012B
:10132000009729F0A80160E070E00E94D50ACE0184
:10133000DF91CF911F910F910895CF93DF9382306A
:10134000910510F482E090E0E0910002F09101023A
:1013500020E030E0C0E0D0E0309711F140815181D1
:1013600048175907C0F04817590761F482819381E3
:10137000209719F09B838A832BC09093010280935E
:10138000000226C02115310519F04217530718F441
:101390009A01BE01DF01EF010280F381E02DDCCF75
:1013A0002115310509F1281B390B2430310590F442
:1013B00012968D919C9113976115710521F0FB0197
:1013C0009383828304C09093010280930002FD0105
:1013D000329644C0FD01E20FF31F81939193225096
:1013E00031092D933C933AC02091FE013091FF01C9
:1013F000232B41F420910601309107013093FF0126
:101400002093FE0120910401309105012115310541
:1014100041F42DB73EB74091080150910901241BBA
:10142000350BE091FE01F091FF01E217F307A0F404
:101430002E1B3F0B2817390778F0AC014E5F5F4F2A
:101440002417350748F04E0F5F1F5093FF0140935C
:10145000FE018193919302C0E0E0F0E0CF01DF91C3
:10146000CF9108950F931F93CF93DF93009709F4C3
:101470008CC0FC01329713821282009100021091FD
:1014800001020115110581F420813181820F931F22
:101490002091FE013091FF012817390779F5F0936B
:1014A000FF01E093FE0171C0D80140E050E0AE17AB
:1014B000BF0750F412962D913C911397AD01211561
:1014C000310509F1D901F3CF9D01DA01338322837C
:1014D00060817181860F971F8217930769F4EC0171
:1014E00028813981260F371F2E5F3F4F318320839C
:1014F0008A819B8193838283452B29F4F093010297
:10150000E093000242C01396FC93EE931297ED0114
:10151000499159919E01240F351FE217F30771F489
:1015200080819181840F951F029611969C938E93D2
:101530008281938113969C938E931297E0E0F0E062
:10154000D80112968D919C911397009719F0F8018C
:101550008C01F6CF8D919C9198012E5F3F4F820FA9
:10156000931F2091FE013091FF012817390769F47C
:10157000309729F4109201021092000202C01382E7
:1015800012821093FF010093FE01DF91CF911F9112
:101590000F910895FC010590615070400110D8F73B
:1015A000809590958E0F9F1F0895DC0101C06D936B
:1015B00041505040E0F70895FC01615070400190A7
:1015C0000110D8F7809590958E0F9F1F08950F9367
:1015D0001F93CF93DF93FB01238121FD03C08FEF86
:1015E0009FEF28C022FF16C0468157812481358194
:1015F0004217530744F4A081B1819D012F5F3F4FF3
:10160000318320838C93268137812F5F3F4F37832F
:10161000268310C0EB01092F182F0084F185E02DDF
:101620000995892BE1F68E819F8101969F838E8398
:10163000812F902FDF91CF911F910F910895FA0183
:10164000AA27283051F1203181F1E8946F936E7F01
:101650006E5F7F4F8F4F9F4FAF4FB1E03ED0B4E0F2
:101660003CD0670F781F891F9A1FA11D680F791F33
:101670008A1F911DA11D6A0F711D811D911DA11D44
:1016800020D009F468943F912AE0269F1124301954
:10169000305D3193DEF6CF010895462F4770405DEF
:1016A0004193B3E00FD0C9F7F6CF462F4F70405D9E
:1016B0004A3318F0495D31FD4052419302D0A9F7F9
:1016C000EACFB4E0A6959795879577956795BA95F3
:1016D000C9F700976105710508959B01AC010A2EB9
:1016E00006945795479537952795BA95C9F7620F90
:1016F000731F841F951FA01D0895052E97FB1EF4D0
:1017000000940E94940B57FD07D00E94E60B07FC43
:1017100003D04EF40C94940B509540953095219540
:101720003F4F4F4F5F4F089590958095709561950D
:101730007F4F8F4F9F4F08950E94080CA59F900DDB
:10174000B49F900DA49F800D911D11240895B7FFA3
:101750000C949C0B0E949C0B821B930B08952F9260
:101760003F924F925F926F927F928F929F92AF9231
:10177000BF92CF92DF92EF92FF920F931F93CF937E
:10178000DF93CDB7DEB7CA1BDB0B0FB6F894DEBF15
:101790000FBECDBF09942A88398848885F846E843B
:1017A0007D848C849B84AA84B984C884DF80EE8085
:1017B000FD800C811B81AA81B981CE0FD11D0FB68E
:1017C000F894DEBF0FBECDBFED010895A1E21A2E41
:1017D000AA1BBB1BFD010DC0AA1FBB1FEE1FFF1FD5
:1017E000A217B307E407F50720F0A21BB30BE40B25
:1017F000F50B661F771F881F991F1A9469F760956C
:101800007095809590959B01AC01BD01CF01089525
:10181000A29FB001B39FC001A39F700D811D112431
:10182000911DB29F700D811D1124911D0895F89492
:02183000FFCFE8
:10183200010000000000020220005374617274690A
:101842006E67205352414D20746573742E2E2E0AFA
:101852000D00577269746520706861736520657246
:10186200726F723A206578745F72616D5B253464C1
:101872005D203D2025303258202873686F756C64D6
:101882002062652025303258290A0D005265747293
:10189200696576616C207068617365206572726F2C
:1018A200723A206578745F72616D5B2534645D20E5
:1018B2003D2025303258202873686F756C64206291
:1018C200652025303258290A0D005352414D2074AB
:1018D20065737420636F6D706C65746564207769DD
:1018E2007468200A253464206572726F72732069ED
:1018F2006E20777269746520706861736520616E0D
:1019020064200A253464206572726F727320696ED6
:101912002072657472696576616C207068617365A6
:041922000A0A0D00A0
:00000001FF
