:100000000C9456040C9473040C9473040C947304B1
:100010000C9473040C9473040C9473040C94730484
:100020000C9473040C9473040C9473040C94730474
:100030000C9473040C9473040C9473040C94730464
:100040000C9473040C9473040C9473040C94730454
:100050000C9473040C9473040C9473040C94730444
:100060000C9473040C9473040C9473040C94730434
:10007000000000000000005E0000000E000E0028DE
:100080007C287C2808547C542026100864002854BE
:1000900028400000000E0000003C42000000423CEE
:1000A0000000005438540010107C101000806020B4
:1000B0000010101010000060600000201008040004
:1000C000003C423C0000447E40004462524C00220E
:1000D0004A4A360018147E10002E4A4A32003C4A22
:1000E0004A300002621A0600344A4A34000C525266
:1000F0003C00006C6C0000806C2C00000010284458
:1001000000282828280000442810000004520C0071
:100110003C425A1C007C12127C007E4A4A34003C4D
:10012000424224007E42423C007E4A4A42007E0A0D
:100130000A02003C425274007E08087E0000427EA3
:1001400042002040403E007E182442007E40404055
:10015000007E0C0C7E007E0C307E003C42423C0057
:100160007E12120C003C6242BC007E12324C002413
:100170004A52240000027E02003E40403E001E60C3
:10018000601E007E30307E006618186600000E701B
:100190000E0062524A4600007E42420004081020CF
:1001A000000042427E000004020400404040400043
:1001B000000204000030482878007E4848300030B3
:1001C000484800003048487E003068581000107CD5
:1001D00012040050A8A898007E0808700000487A11
:1001E00040000040807A007E1028400000427E409F
:1001F0000078101870007808087000304848300007
:10020000F848483000304848F80078080810005096
:1002100058682800083E48400038404078000038C0
:100220004038007860607800483030480018A040BE
:100230003800486858480000083C420000007E0032
:100240000000423C0800FFFFFFFFFF00000000002D
:100250005C00000C000C007C287C2858DC68002422
:1002600010480028542840000C00000078840084C6
:1002700078000054385400107C10008040000010BA
:100280001010000040000060100C00385438004886
:100290007C40004864580044542C001C107C005CD6
:1002A0005424003854240064140C0068542C004872
:1002B00054380000480000804800001028440028FE
:1002C000282800442810000454080038445C0078B2
:1002D0001478007C542800384428007C4438007C82
:1002E0005444007C140400384474007C107C0044A6
:1002F0007C440020403C007C106C007C4040007C32
:10030000187C0078103C00384438007C1408003811
:1003100044B8007C14680048542400047C04007C29
:10032000407C003C603C007C307C006C106C000C1D
:10033000700C0064544C00007C44000C10600044BD
:100340007C00000804080080808000000408003061
:100350004878007C4830003048480030487C003005
:100360006850001078140090A878007C0870005045
:10037000744000808074007C106800447C400078E9
:100380001078007808700030483000F828100030ED
:1003900048F8007810080050582800083C480038F9
:1003A000407800384038007820780048304800987D
:1003B000A078004868580010788400007C00008411
:1003C00078100008040804000000000000005F002E
:1003D000000007000700147F147F14242A7F2A12CC
:1003E00023130864623649552250000503000000BB
:1003F0001C2241000041221C00082A1C2A0808086F
:100400003E08080050300000080808080800606036
:10041000000020100804023E5149453E00427F4042
:100420000042615149462141454B311814127F1059
:1004300027454545393C4A4949300171090503368C
:1004400049494936064949291E00363600000056FA
:10045000360000000814224114141414144122140C
:1004600008000201510906324979413E7E111111FD
:100470007E7F494949363E414141227F4141221C0C
:100480007F494949417F090901013E414151327F7C
:100490000808087F00417F41002040413F017F085C
:1004A0001422417F404040407F0204027F7F0408C5
:1004B000107F3E4141413E7F090909063E415121DD
:1004C0005E7F09192946464949493101017F0101E9
:1004D0003F4040403F1F2040201F7F2018207F6367
:1004E0001408146303047804036151494543000070
:1004F0007F4141020408102041417F0000040201B5
:100500000204404040404000010204002054545482
:10051000787F484444383844444420384444487F31
:100520003854545418087E090102081454543C7F6E
:100530000804047800447D40002040443D00007FD2
:1005400010284400417F40007C041804787C080493
:10055000047838444444387C1414140808141418DB
:100560007C7C080404084854545420043F44402030
:100570003C4040207C1C2040201C3C4030403C44FF
:10058000281028440C5050503C4464544C440008FB
:1005900036410000007F00000041360800020103E0
:1005A0000201000000000000000000065F5F06007E
:1005B00000000007070007070000147F7F147F7FFB
:1005C0001400242E6B6B3A120000466630180C663D
:1005D0006200307A4F5D377A48000407030000005C
:1005E0000000001C3E63410000000041633E1C000F
:1005F0000000082A3E1C1C3E2A0808083E3E080847
:10060000000000A0E06000000000080808080808DA
:10061000000000006060000000006030180C06035D
:1006200001003E7F594D7F3E000042427F7F4040A7
:100630000000627359496F660000226349497F36A2
:100640000000181C16137F7F1000276745457D3971
:1006500000003C7E4B4979300000036371190F079D
:100660000000367F49497F360000064F49693F1E2A
:10067000000000006C6C0000000000A0EC6C0000AA
:100680000000081C366341000000141414141414F4
:100690000000004163361C080000020351590F0698
:1006A00000003E7F415D5D1F1E007C7E13137E7C3B
:1006B0000000417F7F49497F36001C3E6341416312
:1006C0002200417F7F41637F1C00417F7F495D4164
:1006D0006300417F7F491D0103001C3E634151734C
:1006E00072007F7F08087F7F000000417F7F41000C
:1006F0000000307040417F3F0100417F7F081C7740
:100700006300417F7F41406070007F7F060C067F61
:100710007F007F7F060C187F7F001C3E6341633E95
:100720001C00417F7F49090F06001E3F21717F5E3B
:100730000000417F7F19396F460026674D597B3293
:10074000000003417F7F410300007F7F40407F7FA7
:1007500000001F3F60603F1F00007F7F3018307F28
:100760007F0063771C081C776300074F78784F077A
:1007700000006773594D47637100007F7F4141005E
:1007800000000103060C183060000041417F7F002B
:100790000000080C0603060C080080808080808022
:1007A00080800000030704000000207454543C784B
:1007B0004000413F7F44447C3800387C44446C28EE
:1007C0000000307848493F7F4000387C54545C1822
:1007D0000000487E7F490302000098BCA4A4F87C76
:1007E0000400417F7F08047C780000447D7D400048
:1007F000000040C484FD7D000000417F7F10386C04
:10080000440000417F7F400000007C7C0C180C7C81
:1008100078007C7C04047C780000387C44447C387C
:10082000000084FCF8A4243C1800183C24A4F8FC24
:100830008400447C78441C180000485C54547424A0
:10084000000000043E7F442400003C7C40403C7C8F
:1008500040001C3C60603C1C00003C7C6030607CC4
:100860003C00446C3810386C44009CBCA0A0FC7C5C
:1008700000004C64745C4C64000008083E77414101
:10088000000000000077770000004141773E080833
:10089000000002030103020301004D656E75330081
:1008A0004D656E7532004D656E75310011241FBEA9
:1008B000CFEFD4E0DEBFCDBF11E0A0E0B1E0E4E8CF
:1008C000F8E102C005900D92AC3AB107D9F721E0EA
:1008D000ACEAB1E001C01D92AA3BB207E1F70E9469
:1008E00075040C94400C0C9400000E94B8040E9403
:1008F000C6040E946D050E9442070E94600760E4E2
:100900008FE00E9476078FE00E9467071F928F9307
:100910008DE591E09F938F930E9425082FEF81EE44
:1009200094E0215080409040E1F700C0000040E892
:1009300060E88FE00E9499078FE00E9467071F928E
:100940008F9384E591E09F938F930E9425088DB744
:100950009EB708960FB6F8949EBF0FBE8DBFFFCF0F
:100960005D9BFECF8CB908955F9BFECF8CB108953F
:1009700010BC8FE189B988E18AB986E880BD64EB53
:1009800074E080EB94E00E94DA07089585B78068F0
:1009900085BF80B7806280BF0895E0E0F4E1808386
:1009A00089EF90E00197F1F700C000008081089581
:1009B00085E090E00E94CD0488235CF024E682026A
:1009C000C00111246DE770E00E94B2078CE9860F28
:1009D0000895082E000C990B9C0123583F4F44E6C4
:1009E000429FC001439F900D11246DE770E00E946B
:1009F000B207862F089584E090E00E94CD048823FA
:100A00005CF024E68202C00111246DE770E00E94D0
:100A1000B2078CE9860F0895082E000C990B9C01F3
:100A200023583F4F44E6429FC001439F900D11243D
:100A30006DE770E00E94B207862F089587E090E08E
:100A40000E94CD048F3F5CF422E38202C001112496
:100A50006DE770E00E94B20784E6860F089522E3F6
:100A60008202C00111246DE770E00E94B207862F58
:100A7000089586E090E00E94CD048F3F5CF422E36D
:100A80008202C00111246DE770E00E94B20784E683
:100A9000860F089522E38202C00111246DE770E001
:100AA0000E94B207862F089517BA86B3882369F08B
:100AB00099EF980F943058F09EEF980F953048F0CA
:100AC0008B50843040F080E008958AE6089582E7F4
:100AD00008958CE6089582E60895E0E0F0E18EEA5C
:100AE000808381EA80838AED808382E1808388EC41
:100AF000808388EA80838FE3808385ED808380E82C
:100B0000808381E8808380E5808389ED808381E232
:100B1000808380E2808310828BED808380E38083FA
:100B20008DEA8083108284EA808386EA80838FEA5C
:100B30008083089580930010089580930012089593
:100B400090E09C01220F331F220F331F820F931F4F
:100B500020E030E0805A9109A0E0B2E1FC01E20F10
:100B6000F31FE059FF4FE491EC932F5F3F4F253087
:100B70003105A1F708951F93CF93DF93EC0110E0A7
:100B800007C0FE01E20FF31F80810E94A0051F5FD6
:100B9000212F30E0FE0101900020E9F73197EC1B96
:100BA000FD0B2E173F0768F3DF91CF911F9108953A
:100BB000E0E0F0E192E29083808397E0908390E020
:100BC0009093AF018093AE010895E0E0F0E191E2EF
:100BD000908380839FE7908390E09093AD01809312
:100BE000AC01089580E00E94E50580E00E94D805F0
:100BF000089528E030E050E840E0E0E0F2E106C08F
:100C000010820197E9F72150310919F0852F942FAF
:100C1000F7CF08958036910574F08091AE019091E0
:100C2000AF01009721F4862F0E94D80508958150C6
:100C30000E94D8050895813A9F4F74F48091AE01C7
:100C40009091AF018617970721F480E00E94D805A4
:100C500008958F5F0E94D80508958B3591057CF02B
:100C60008091AC019091AD018B37910524F080E02B
:100C70000E94E50508958B5F0E94E5050895863A78
:100C80009F4F74F48091AC019091AD018530910536
:100C900024F48FE70E94E505089585500E94E5053C
:100CA00008950E94D80580E00E94E50580E890E064
:100CB000E0E0F2E110820197E9F708950E94D8057B
:100CC00080E00E94E50520E830E0E0E0F2E180818C
:100CD0008095808321503109D1F708950E94F9054C
:100CE0008FE691E00E94BB0581E00E94D80580E07C
:100CF0000E94E5058CE791E00E94BB0582E00E941E
:100D0000D80580E00E94E50585E891E00E94BB05DA
:100D100080E00E94D80580E00E94E5050F2EF3EAEE
:100D2000EF2EF1E0FF2EF02D0AE911E0C1E9D1E04C
:100D30000E94FB0462E070E0082E000C990B0E94F8
:100D40000A068091AE019091AF01009739F580E0DD
:100D500090E00E9451062FE986E891E02150804002
:100D60009040E1F700C0000080E00E94D80580E0DC
:100D70000E94E5058FE691E00E94BB052FE986E819
:100D800091E0215080409040E1F700C00000DF93E7
:100D9000CF930E9425080F900F90CACF8130910504
:100DA00039F581E090E00E9451069FE926E881E054
:100DB000915020408040E1F700C0000081E00E9497
:100DC000D80580E00E94E5058CE791E00E94BB0514
:100DD0009FE926E881E0915020408040E1F700C083
:100DE00000001F930F930E9425080F900F90A0CF33
:100DF000029709F09DCF82E090E00E9451069FE9A2
:100E000026E881E0915020408040E1F700C00000DA
:100E100082E00E94D80580E00E94E50585E891E027
:100E20000E94BB059FE926E881E091502040804068
:100E3000E1F700C00000FF92EF920E9425080F909A
:100E40000F9076CFC0E0D0E000E010E002C0C02FED
:100E5000D12F9FE72AE186E0915020408040E1F7C2
:100E600000C000000E94F205FE01EE0FFF1FE050DF
:100E7000FF4F808191810E94BB05C230D10539F3BB
:100E80002196E7CF80EB87BB81E58DB908958FB9B7
:100E9000779BFECF0895CF93DF931F92CDB7DEB738
:100EA0008FEF8FB9779BFECF8FB1898389810F90A8
:100EB000DF91CF91089518BA089580E188BB089515
:100EC00018BA80EC0E94470780E188BB0895CF9351
:100ED000C82F18BA83E00E9447078C2F0E9447074B
:100EE0000E944B0790E198BBCF910895CF93DF9379
:100EF000D82FC62F18BA82E00E9447078D2F0E9474
:100F000047078C2F0E94470780E188BBDF91CF9174
:100F1000089518BA81E80E94470780E188BB0895C8
:100F200018BA80EA0E9447070E944B0780E188BBFD
:100F300008951F93CF93DF93182FD62FC42F18BA7D
:100F400085E00E944707812F0E9447078D2F0E944E
:100F500047078C2F0E94470780E188BBDF91CF9124
:100F60001F91089597FB072E16F4009407D077FD84
:100F700009D00E94C60707FC05D03EF490958195E4
:100F80009F4F0895709561957F4F0895AA1BBB1BD5
:100F900051E107C0AA1FBB1FA617B70710F0A61B79
:100FA000B70B881F991F5A95A9F780959095BC019A
:100FB000CD0108950F931F93CF93DF93009731F4E2
:100FC0006115710519F480E090E03AC08B01EC01E5
:100FD0006EE070E081E090E00E940D0AFC01892B38
:100FE00091F380E883830115110571F0138702875F
:100FF00081E883838091B0019091B101892B21F424
:10100000F093B101E093B0012097C9F0D187C08778
:101010008381826083838091B2019091B301892B97
:1010200071F4F093B301E093B2018091B401909117
:10103000B501892B21F4F093B501E093B401CF0100
:10104000DF91CF911F910F910895A0E0B0E0EBE206
:10105000F8E00C94190CAE014B5F5F4FFA016191FF
:101060007191AF018091B2019091B3010E943B0850
:10107000E2E00C94350CACE0B0E0E1E4F8E00C9474
:10108000090C7C016B018A01FC01178216828381A5
:1010900081FFBDC1CE0101964C01F7019381F6019C
:1010A00093FD859193FF81916F01882309F4ABC172
:1010B000853239F493FD859193FF81916F018532DB
:1010C00029F4B70190E00E94730BE7CF512C312C2B
:1010D00020E02032A0F48B3269F030F4803259F0F5
:1010E000833269F420612CC08D3239F0803339F4B9
:1010F000216026C02260246023C0286021C027FD13
:1011000027C030ED380F3A3078F426FF06C0FAE0F9
:101110005F9E300D1124532E13C08AE0389E300D8F
:101120001124332E20620CC08E3221F426FD6BC1B7
:10113000206406C08C3611F4206802C0883641F461
:10114000F60193FD859193FF81916F018111C1CFCC
:10115000982F9F7D9554933028F40C5F1F4FFFE329
:10116000F9830DC0833631F0833771F0833509F090
:101170005BC022C0F801808189830E5F1F4F442429
:101180004394512C540115C03801F2E06F0E711CCC
:10119000F801A080B18026FF03C0652D70E002C079
:1011A0006FEF7FEFC5012C870E94680B2C01830134
:1011B0002C852F77222E17C03801F2E06F0E711C9C
:1011C000F801A080B18026FF03C0652D70E002C049
:1011D0006FEF7FEFC5012C870E94560B2C012C85E9
:1011E0002068222E830123FC1BC0832D90E048162B
:1011F0005906B0F4B70180E290E00E94730B3A9474
:10120000F4CFF50127FC859127FE81915F01B7019D
:1012100090E00E94730B31103A94F1E04F1A51089C
:101220004114510471F7E5C0843611F0893639F55F
:10123000F80127FF07C060817181828193810C5F73
:101240001F4F08C060817181072E000C880B990B1D
:101250000E5F1F4F2F76722E97FF09C090958095D5
:10126000709561957F4F8F4F9F4F2068722E2AE0B7
:1012700030E0A4010E94AB0BA82EA81844C085370B
:1012800029F42F7EB22E2AE030E025C0F22FF97F1C
:10129000BF2E8F36C1F018F4883579F0B4C080378E
:1012A00019F0883721F0AFC02F2F2061B22EB4FE85
:1012B0000DC08B2D8460B82E09C024FF0AC09F2F5B
:1012C0009660B92E06C028E030E005C020E130E08D
:1012D00002C020E132E0F801B7FE07C060817181F1
:1012E000828193810C5F1F4F06C06081718180E015
:1012F00090E00E5F1F4FA4010E94AB0BA82EA81810
:10130000FB2DFF777F2E76FE0BC0372D3E7FA51479
:1013100050F474FE0AC072FC08C0372D3E7E05C032
:10132000BA2C372D03C0BA2C01C0B52C34FF0DC028
:10133000FE01EA0DF11D8081803311F4397E09C070
:1013400032FF06C0B394B39404C0832F867809F0AB
:10135000B39433FD13C030FF06C05A2CB31418F4F5
:10136000530C5B18B32CB31468F4B70180E290E01F
:101370003C870E94730BB3943C85F5CFB31410F4F3
:101380003B1801C0312C34FF12C0B70180E390E05C
:101390003C870E94730B3C8532FF17C031FD03C0B0
:1013A00088E790E002C088E590E0B7010CC0832F89
:1013B000867859F031FF02C08BE201C080E237FD30
:1013C0008DE2B70190E00E94730BA51438F4B701C9
:1013D00080E390E00E94730B5A94F7CFAA94F40133
:1013E000EA0DF11D8081B70190E00E94730BA110FE
:1013F000F5CF332009F451CEB70180E290E00E948E
:10140000730B3A94F6CFF7018681978102C08FEF74
:101410009FEF2C96E2E10C94250C0F931F93CF9332
:10142000DF93869F8001879F100D969F100D1124DA
:10143000C8010E94290AEC01009729F0A80160E088
:1014400070E00E94610BCE01DF91CF911F910F914F
:101450000895CF93DF938230910510F482E090E0FD
:10146000E091B801F091B90120E030E0C0E0D0E0B7
:10147000309711F14081518148175907C0F0481742
:10148000590761F482819381209719F09B838A83A5
:101490002BC09093B9018093B80126C02115310566
:1014A00019F04217530718F49A01BE01DF01EF014A
:1014B0000280F381E02DDCCF2115310509F1281BD5
:1014C000390B2430310590F412968D919C9113972D
:1014D0006115710521F0FB019383828304C0909311
:1014E000B9018093B801FD01329644C0FD01E20FBD
:1014F000F31F81939193225031092D933C933AC06D
:101500002091B6013091B701232B41F420910E01B7
:1015100030910F013093B7012093B60120910C0157
:1015200030910D012115310541F42DB73EB74091A1
:10153000100150911101241B350BE091B601F0917F
:10154000B701E217F307A0F42E1B3F0B281739074A
:1015500078F0AC014E5F5F4F2417350748F04E0F0F
:101560005F1F5093B7014093B6018193919302C0DE
:10157000E0E0F0E0CF01DF91CF9108950F931F934A
:10158000CF93DF93009709F48CC0FC01329713824C
:1015900012820091B8011091B9010115110581F471
:1015A00020813181820F931F2091B6013091B701C4
:1015B0002817390779F5F093B701E093B60171C0A8
:1015C000D80140E050E0AE17BF0750F412962D91BD
:1015D0003C911397AD012115310509F1D901F3CFE4
:1015E0009D01DA013383228360817181860F971F09
:1015F0008217930769F4EC0128813981260F371F80
:101600002E5F3F4F318320838A819B819383828326
:10161000452B29F4F093B901E093B80142C0139629
:10162000FC93EE931297ED01499159919E01240F7D
:10163000351FE217F30771F480819181840F951FA4
:10164000029611969C938E938281938113969C931C
:101650008E931297E0E0F0E0D80112968D919C9164
:101660001397009719F0F8018C01F6CF8D919C919A
:1016700098012E5F3F4F820F931F2091B60130914A
:10168000B7012817390769F4309729F41092B90186
:101690001092B80102C0138212821093B701009316
:1016A000B601DF91CF911F910F910895FC01059034
:1016B000615070400110D8F7809590958E0F9F1F54
:1016C0000895DC0101C06D9341505040E0F708954A
:1016D000FC016150704001900110D8F78095909501
:1016E0008E0F9F1F08950F931F93CF93DF93FB01DE
:1016F000238121FD03C08FEF9FEF28C022FF16C07A
:1017000046815781248135814217530744F4A081D3
:10171000B1819D012F5F3F4F318320838C932681C0
:1017200037812F5F3F4F3783268310C0EB01092F8E
:10173000182F0084F185E02D0995892BE1F68E8123
:101740009F8101969F838E83812F902FDF91CF9170
:101750001F910F910895FA01AA27283051F12031E5
:1017600081F1E8946F936E7F6E5F7F4F8F4F9F4F35
:10177000AF4FB1E03ED0B4E03CD0670F781F891F77
:101780009A1FA11D680F791F8A1F911DA11D6A0F45
:10179000711D811D911DA11D20D009F468943F91F8
:1017A0002AE0269F11243019305D3193DEF6CF01F7
:1017B0000895462F4770405D4193B3E00FD0C9F7BD
:1017C000F6CF462F4F70405D4A3318F0495D31FD2A
:1017D0004052419302D0A9F7EACFB4E0A69597957D
:1017E000879577956795BA95C9F700976105710553
:1017F00008959B01AC010A2E06945795479537959D
:101800002795BA95C9F7620F731F841F951FA01DF6
:1018100008952F923F924F925F926F927F928F9294
:101820009F92AF92BF92CF92DF92EF92FF920F936F
:101830001F93CF93DF93CDB7DEB7CA1BDB0B0FB679
:10184000F894DEBF0FBECDBF09942A883988488836
:101850005F846E847D848C849B84AA84B984C884CC
:10186000DF80EE80FD800C811B81AA81B981CE0FC3
:10187000D11D0FB6F894DEBF0FBECDBFED010895A8
:04188000F894FFCF0A
:101884003E0128011201A608A0089A080000BA0126
:101894002000486F6D652053637265656E2C204F80
:1018A4007074696F6E203300486F6D6520536372E6
:1018B40065656E2C204F7074696F6E203200486F1E
:1018C4006D652053637265656E2C204F7074696F6B
:1018D4006E2031004D6F646966696564204D435024
:1018E4005F43414E4354524C3A2025640A0D00672D
:1018F40069742070756C6C206F757400676974204E
:10190400636F6D6500676974206E6F206261627930
:1019140000706167653D300A0D00706167653D3197
:0C1924000A0D00706167653D320A0D007D
:00000001FF
