:100000000C9438000C9442000C9442000C94420072
:100010000C9442000C9442000C9442000C94420058
:100020000C9442000C9442000C9442000C94420048
:100030000C9442000C9442000C9442000C94420038
:100040000C9442000C9442000C9442000C94420028
:100050000C9442000C9442000C9442000C94420018
:100060000C9442000C9442000C9442000C94420008
:1000700011241FBECFEFD4E0DEBFCDBF0E944400ED
:100080000C945D000C9400000E944D0081E490E00F
:100090000E94550080E090E0089510BC8FE189B97E
:1000A00088E18AB986E880BD08955D9BFECF8CB952
:0E00B00008955F9BFECF8CB10895F894FFCFAA
:00000001FF
