:100000000C9460030C947D030C947D030C947D038D
:100010000C947D030C947D030C947D030C947D0360
:100020000C947D030C947D030C947D030C947D0350
:100030000C947D030C947D030C947D030C947D0340
:100040000C947D030C947D030C947D030C947D0330
:100050000C947D030C947D030C947D030C947D0320
:100060000C947D030C947D030C947D030C947D0310
:1000700000000000005C00000C000C007C287C28C4
:1000800058DC68002410480028542840000C000068
:10009000007884008478000054385400107C1000EC
:1000A00080400000101010000040000060100C00A4
:1000B00038543800487C40004864580044542C00B0
:1000C0001C107C005C5424003854240064140C0080
:1000D00068542C0048543800004800008048000054
:1000E0001028440028282800442810000454080040
:1000F00038445C00781478007C5428003844280088
:100100007C4438007C5444007C140400384474005F
:100110007C107C00447C440020403C007C106C003F
:100120007C4040007C187C0078103C00384438004B
:100130007C1408003844B8007C146800485424003B
:10014000047C04007C407C003C603C007C307C00F3
:100150006C106C000C700C0064544C00007C44006B
:100160000C106000447C00000804080080808000BF
:1001700000040800304878007C48300030484800CF
:1001800030487C00306850001078140090A8780047
:100190007C08700050744000808074007C106800FF
:1001A000447C4000781078007808700030483000B7
:1001B000F82810003048F80078100800505828003F
:1001C000083C4800384078003840380078207800F3
:1001D0004830480098A0780048685800107884009B
:1001E000007C00008478100008040804000000006F
:1001F0000000005F00000007000700147F147F1458
:10020000242A7F2A1223130864623649552250009B
:1002100005030000001C2241000041221C00082AA6
:100220001C2A0808083E080800503000000808088A
:100230000808006060000020100804023E51494593
:100240003E00427F400042615149462141454B31C9
:100250001814127F1027454545393C4A4949300159
:10026000710905033649494936064949291E0036B0
:100270003600000056360000000814224114141401
:10028000141441221408000201510906324979412F
:100290003E7E1111117E7F494949363E414141223E
:1002A0007F4141221C7F494949417F090901013EA3
:1002B000414151327F0808087F00417F41002040C2
:1002C000413F017F081422417F404040407F0204AB
:1002D000027F7F0408107F3E4141413E7F090909AA
:1002E000063E4151215E7F09192946464949493157
:1002F00001017F01013F4040403F1F2040201F7F00
:100300002018207F631408146303047804036151E8
:1003100049454300007F4141020408102041417FCC
:100320000000040201020440404040400001020479
:100330000020545454787F4844443838444444207E
:10034000384444487F3854545418087E0901020840
:100350001454543C7F0804047800447D400020403D
:10036000443D00007F10284400417F40007C041879
:1003700004787C0804047838444444387C14141409
:1003800008081414187C7C080404084854545420A9
:10039000043F4440203C4040207C1C2040201C3C2A
:1003A0004030403C44281028440C5050503C446499
:1003B000544C44000836410000007F0000004136E4
:1003C000080002010302010000000000000000001C
:1003D000065F5F0600000000070700070700001423
:1003E0007F7F147F7F1400242E6B6B3A120000462F
:1003F0006630180C666200307A4F5D377A48000428
:1004000007030000000000001C3E634100000000E4
:1004100041633E1C000000082A3E1C1C3E2A0808BE
:10042000083E3E0808000000A0E060000000000850
:100430000808080808000000006060000000006074
:1004400030180C060301003E7F594D7F3E000042EC
:10045000427F7F40400000627359496F660000226E
:100460006349497F360000181C16137F7F10002750
:100470006745457D3900003C7E4B497930000003DB
:100480006371190F070000367F49497F3600000667
:100490004F49693F1E000000006C6C000000000026
:1004A000A0EC6C00000000081C3663410000001442
:1004B00014141414140000004163361C08000002D8
:1004C0000351590F0600003E7F415D5D1F1E007CF9
:1004D0007E13137E7C0000417F7F49497F36001CDC
:1004E0003E634141632200417F7F41637F1C0041A5
:1004F0007F7F495D416300417F7F491D0103001CEF
:100500003E6341517372007F7F08087F7F000000C7
:10051000417F7F41000000307040417F3F0100413A
:100520007F7F081C776300417F7F41406070007FC0
:100530007F060C067F7F007F7F060C187F7F001CE4
:100540003E6341633E1C00417F7F49090F06001E48
:100550003F21717F5E0000417F7F19396F46002681
:10056000674D597B32000003417F7F410300007FCC
:100570007F40407F7F00001F3F60603F1F00007F83
:100580007F3018307F7F0063771C081C776300077B
:100590004F78784F0700006773594D47637100002B
:1005A0007F7F41410000000103060C18306000000D
:1005B00041417F7F000000080C0603060C08008004
:1005C000808080808080800000030704000000207D
:1005D0007454543C784000413F7F44447C38003898
:1005E0007C44446C280000307848493F7F40003804
:1005F0007C54545C180000487E7F49030200009838
:10060000BCA4A4F87C0400417F7F08047C7800002F
:10061000447D7D4000000040C484FD7D0000004119
:100620007F7F10386C440000417F7F400000007CD9
:100630007C0C180C7C78007C7C04047C78000038EE
:100640007C44447C38000084FCF8A4243C18001846
:100650003C24A4F8FC8400447C78441C1800004826
:100660005C54547424000000043E7F442400003C89
:100670007C40403C7C40001C3C60603C1C00003CDA
:100680007C6030607C3C00446C3810386C44009CCA
:10069000BCA0A0FC7C00004C64745C4C64000008AE
:1006A000083E7741410000000000777700000041DC
:1006B00041773E0808000002030103020301000025
:1006C00011241FBECFEFD4E0DEBFCDBF11E0A0E00C
:1006D000B1E0EEE7F5E102C005900D92AE3FB10743
:1006E000D9F722E0AEEFB1E001C01D92A830B20709
:1006F000E1F70E947F030C94BD0A0C9400000E9455
:100700009F030E94AD030E94F8040E94520583E0FB
:100710000E9422052FEF81EE94E02150804090400E
:10072000E1F700C0000081E40E94D604F3CF5D9B96
:10073000FECF8CB908955F9BFECF8CB1089510BC9D
:100740008FE189B988E18AB986E880BD6BE973E0F9
:1007500087E993E00E94F405089585B7806885BF16
:1007600080B7806280BF0895CF92DF92EF92FF92B0
:100770000F931F93CF93DF938AE091E09F938F9322
:100780000E943F060E94E4057C010E94E9050F904B
:100790000F90C12CD12CC0E0D0E002E211E00E9409
:1007A000E405F601F85E808320812817A1F09927DF
:1007B0009F938F931F922F93DF92CF921F930F934C
:1007C0000E943F0621968DB79EB708960FB6F89403
:1007D0009EBF0FBE8DBF9FEFC91AD90AC11488E012
:1007E000D806E9F6C7010E94E90500E010E0E12C17
:1007F000F12C0F2EFCE5CF2EF1E0DF2EF02D0E9424
:10080000E405F801F85E20812817B1F099279F933D
:100810008F931F922F931F930F93DF92CF920E947B
:100820003F069FEFE91AF90A8DB79EB708960FB6F3
:10083000F8949EBF0FBE8DBF0F5F1F4F011598E04C
:100840001907E9F6FF92EF92DF93CF938AE991E0DF
:100850009F938F930E943F060F900F900F900F90E1
:100860000F900F90DF91CF911F910F91FF90EF901C
:10087000DF90CF900895E0E0F4E1808389EF90E08D
:100880000197F1F700C000008081089585E090E0B5
:100890000E943B0488235CF024E68202C0011124FC
:1008A0006DE770E00E9470058CE9860F0895082EB0
:1008B000000C990B9C0123583F4F44E6429FC00116
:1008C000439F900D11246DE770E00E947005862F04
:1008D000089584E090E00E943B0488235CF024E6C5
:1008E0008202C00111246DE770E00E9470058CE95E
:1008F000860F0895082E000C990B9C0123583F4F3A
:1009000044E6429FC001439F900D11246DE770E0C3
:100910000E947005862F089587E090E00E943B04B6
:100920008F3F5CF422E38202C00111246DE770E086
:100930000E94700584E6860F089522E38202C001BA
:1009400011246DE770E00E947005862F089586E0FF
:1009500090E00E943B048F3F5CF422E38202C001DE
:1009600011246DE770E00E94700584E6860F0895FB
:1009700022E38202C00111246DE770E00E9470053D
:10098000862F089517BA86B3883031F0843031F05D
:100990008C3031F080E0089582E708958CE6089568
:1009A00082E608958093001008950895CF93DF9311
:1009B000EC0140E050E0A0E0B2E12881022E000C02
:1009C000330B20523109F901EE0FFF1FEE0FFF1F0D
:1009D000E20FF31FE40FF51FE451FE4FE491EC9397
:1009E0004F5F5F4F4530510541F7DF91CF9108953B
:1009F000E0E0F0E18EEA808381EA808382E1808317
:100A000088EC808388EA80838FE3808385ED808310
:100A100080E8808381E8808380E5808389ED80831E
:100A200080E2808382E080838BED808380E380831B
:100A30008DEA8083108284EA808386EA80838FEA4D
:100A4000808308958055809300100895CF93DF939D
:100A5000FC0101900020E9F731979F01281B390B19
:100A6000C901E9019F932F9384EF91E09F938F93A6
:100A70000E943F060F900F900F900F901C161D06BE
:100A800034F480E090E00196C817D907E1F7DF91D0
:100A9000CF910895E0E0F0E181E2808310828FEE53
:100AA0008083089520EBA0E0B0E140E830E0E0E092
:100AB000F2E12C93842F932F10820197E9F72F5F97
:100AC000283BB9F70895CF93805580930010C0E07C
:100AD0008C2F0E944A05CF5FC038D1F7CF9108957F
:100AE00097FB072E16F4009407D077FD09D00E94DB
:100AF000840507FC05D03EF4909581959F4F08959D
:100B0000709561957F4F0895AA1BBB1B51E107C0EB
:100B1000AA1FBB1FA617B70710F0A61BB70B881F8D
:100B2000991F5A95A9F780959095BC01CD0108951C
:100B30008F929F92AF92BF92CF92DF92EF92FF92ED
:100B4000CF93DF93EC01688179818A819B81611564
:100B500071058105910521F464E279ED8BE597E05B
:100B60002DE133EF41E050E00E94230A49015A0190
:100B70009B01AC01A7EAB1E40E94420A6B017C012F
:100B8000ACEEB4EFA50194010E94500ADC01CB0148
:100B90008C0D9D1DAE1DBF1DB7FF03C00197A109A0
:100BA000B04888839983AA83BB839F77DF91CF91D5
:100BB000FF90EF90DF90CF90BF90AF909F908F907D
:100BC00008950E949805089580E091E00E9498059C
:100BD0000895A0E0B0E08093000190930101A093FC
:100BE0000201B093030108950F931F93CF93DF93F6
:100BF000009731F46115710519F480E090E03AC076
:100C00008B01EC016EE070E081E090E00E9427082B
:100C1000FC01892B91F380E883830115110571F0A4
:100C20001387028781E883838091FE019091FF0101
:100C3000892B21F4F093FF01E093FE012097C9F086
:100C4000D187C087838182608383809100029091E5
:100C50000102892B71F4F0930102E093000280916C
:100C6000020290910302892B21F4F0930302E09396
:100C70000202CF01DF91CF911F910F910895A0E063
:100C8000B0E0E5E4F6E00C94650AAE014B5F5F4F1F
:100C9000FA0161917191AF0180910002909101027E
:100CA0000E945506E2E00C94810AACE0B0E0EBE56E
:100CB000F6E00C94550A7C016B018A01FC01178255
:100CC0001682838181FFBDC1CE0101964C01F701DF
:100CD0009381F60193FD859193FF81916F018823A4
:100CE00009F4ABC1853239F493FD859193FF81916D
:100CF0006F01853229F4B70190E00E948D09E7CF9A
:100D0000512C312C20E02032A0F48B3269F030F4E9
:100D1000803259F0833269F420612CC08D3239F071
:100D2000803339F4216026C02260246023C028600B
:100D300021C027FD27C030ED380F3A3078F426FF68
:100D400006C0FAE05F9E300D1124532E13C08AE0D6
:100D5000389E300D1124332E20620CC08E3221F4C7
:100D600026FD6BC1206406C08C3611F4206802C0D9
:100D7000883641F4F60193FD859193FF81916F01CF
:100D80008111C1CF982F9F7D9554933028F40C5F2B
:100D90001F4FFFE3F9830DC0833631F0833771F0C5
:100DA000833509F05BC022C0F801808189830E5F22
:100DB0001F4F44244394512C540115C03801F2E0D4
:100DC0006F0E711CF801A080B18026FF03C0652D55
:100DD00070E002C06FEF7FEFC5012C870E9482098F
:100DE0002C0183012C852F77222E17C03801F2E0C9
:100DF0006F0E711CF801A080B18026FF03C0652D25
:100E000070E002C06FEF7FEFC5012C870E94700970
:100E10002C012C852068222E830123FC1BC0832DEE
:100E200090E048165906B0F4B70180E290E00E94C5
:100E30008D093A94F4CFF50127FC859127FE819125
:100E40005F01B70190E00E948D0931103A94F1E002
:100E50004F1A51084114510471F7E5C0843611F05E
:100E6000893639F5F80127FF07C0608171818281D9
:100E700093810C5F1F4F08C060817181072E000CA9
:100E8000880B990B0E5F1F4F2F76722E97FF09C0AC
:100E900090958095709561957F4F8F4F9F4F2068FB
:100EA000722E2AE030E0A4010E94C509A82EA818DD
:100EB00044C0853729F42F7EB22E2AE030E025C0C9
:100EC000F22FF97FBF2E8F36C1F018F4883579F0F4
:100ED000B4C0803719F0883721F0AFC02F2F2061C0
:100EE000B22EB4FE0DC08B2D8460B82E09C024FF35
:100EF0000AC09F2F9660B92E06C028E030E005C0DA
:100F000020E130E002C020E132E0F801B7FE07C086
:100F100060817181828193810C5F1F4F06C0608167
:100F2000718180E090E00E5F1F4FA4010E94C5090F
:100F3000A82EA818FB2DFF777F2E76FE0BC0372D2D
:100F40003E7FA51450F474FE0AC072FC08C0372D11
:100F50003E7E05C0BA2C372D03C0BA2C01C0B52C7B
:100F600034FF0DC0FE01EA0DF11D8081803311F4C4
:100F7000397E09C032FF06C0B394B39404C0832FF6
:100F8000867809F0B39433FD13C030FF06C05A2CA5
:100F9000B31418F4530C5B18B32CB31468F4B701F2
:100FA00080E290E03C870E948D09B3943C85F5CFA8
:100FB000B31410F43B1801C0312C34FF12C0B70138
:100FC00080E390E03C870E948D093C8532FF17C08A
:100FD00031FD03C088E790E002C088E590E0B701EA
:100FE0000CC0832F867859F031FF02C08BE201C01C
:100FF00080E237FD8DE2B70190E00E948D09A514D3
:1010000038F4B70180E390E00E948D095A94F7CF3D
:10101000AA94F401EA0DF11D8081B70190E00E94CD
:101020008D09A110F5CF332009F451CEB70180E22C
:1010300090E00E948D093A94F6CFF701868197815E
:1010400002C08FEF9FEF2C96E2E10C94710A0F9390
:101050001F93CF93DF93869F8001879F100D969FEC
:10106000100D1124C8010E944308EC01009729F0DB
:10107000A80160E070E00E947B09CE01DF91CF9172
:101080001F910F910895CF93DF938230910510F453
:1010900082E090E0E0910602F091070220E030E06B
:1010A000C0E0D0E0309711F14081518148175907D5
:1010B000C0F04817590761F482819381209719F095
:1010C0009B838A832BC0909307028093060226C0DD
:1010D0002115310519F04217530718F49A01BE0182
:1010E000DF01EF010280F381E02DDCCF2115310516
:1010F00009F1281B390B2430310590F412968D919B
:101100009C9113976115710521F0FB0193838283F4
:1011100004C09093070280930602FD01329644C0FA
:10112000FD01E20FF31F81939193225031092D931A
:101130003C933AC02091040230910502232B41F4E4
:10114000209106013091070130930502209304029B
:1011500020910401309105012115310541F42DB78D
:101160003EB74091080150910901241B350BE091D5
:101170000402F0910502E217F307A0F42E1B3F0BC7
:101180002817390778F0AC014E5F5F4F24173507F9
:1011900048F04E0F5F1F5093050240930402819365
:1011A000919302C0E0E0F0E0CF01DF91CF9108958C
:1011B0000F931F93CF93DF93009709F48CC0FC012A
:1011C00032971382128200910602109107020115D4
:1011D000110581F420813181820F931F2091040237
:1011E000309105022817390779F5F0930502E0934D
:1011F000040271C0D80140E050E0AE17BF0750F4C0
:1012000012962D913C911397AD012115310509F1ED
:10121000D901F3CF9D01DA0133832283608171818B
:10122000860F971F8217930769F4EC012881398193
:10123000260F371F2E5F3F4F318320838A819B818A
:1012400093838283452B29F4F0930702E0930602EF
:1012500042C01396FC93EE931297ED014991599178
:101260009E01240F351FE217F30771F480819181ED
:10127000840F951F029611969C938E938281938181
:1012800013969C938E931297E0E0F0E0D8011296AB
:101290008D919C911397009719F0F8018C01F6CF6E
:1012A0008D919C9198012E5F3F4F820F931F20914B
:1012B0000402309105022817390769F4309729F4A0
:1012C000109207021092060202C01382128210933B
:1012D000050200930402DF91CF911F910F910895B1
:1012E000FC010590615070400110D8F780959095F1
:1012F0008E0F9F1F0895DC0101C06D934150504037
:10130000E0F70895FC016150704001900110D8F79A
:10131000809590958E0F9F1F08950F931F93CF93E5
:10132000DF93FB01238121FD03C08FEF9FEF28C0D6
:1013300022FF16C046815781248135814217530709
:1013400044F4A081B1819D012F5F3F4F3183208301
:101350008C93268137812F5F3F4F3783268310C0C0
:10136000EB01092F182F0084F185E02D0995892BB9
:10137000E1F68E819F8101969F838E83812F902F2E
:10138000DF91CF911F910F910895FA01AA2728307C
:1013900051F1203181F1E8946F936E7F6E5F7F4F42
:1013A0008F4F9F4FAF4FB1E03ED0B4E03CD0670FBE
:1013B000781F891F9A1FA11D680F791F8A1F911D11
:1013C000A11D6A0F711D811D911DA11D20D009F461
:1013D00068943F912AE0269F11243019305D3193A3
:1013E000DEF6CF010895462F4770405D4193B3E08C
:1013F0000FD0C9F7F6CF462F4F70405D4A3318F033
:10140000495D31FD4052419302D0A9F7EACFB4E0E3
:10141000A6959795879577956795BA95C9F700979B
:101420006105710508959B01AC010A2E069457953C
:10143000479537952795BA95C9F7620F731F841F93
:10144000951FA01D0895052E97FB1EF400940E9481
:101450003A0A57FD07D00E948C0A07FC03D04EF4CD
:101460000C943A0A50954095309521953F4F4F4F37
:101470005F4F089590958095709561957F4F8F4F40
:101480009F4F08950E94AE0AA59F900DB49F900DA6
:10149000A49F800D911D11240895B7FF0C94420A5A
:1014A0000E94420A821B930B08952F923F924F9203
:1014B0005F926F927F928F929F92AF92BF92CF92E4
:1014C000DF92EF92FF920F931F93CF93DF93CDB7ED
:1014D000DEB7CA1BDB0B0FB6F894DEBF0FBECDBF65
:1014E00009942A88398848885F846E847D848C8436
:1014F0009B84AA84B984C884DF80EE80FD800C813F
:101500001B81AA81B981CE0FD11D0FB6F894DEBF21
:101510000FBECDBFED010895A1E21A2EAA1BBB1B81
:10152000FD010DC0AA1FBB1FEE1FFF1FA217B307AF
:10153000E407F50720F0A21BB30BE40BF50B661FC5
:10154000771F881F991F1A9469F760957095809589
:1015500090959B01AC01BD01CF010895A29FB00100
:10156000B39FC001A39F700D811D1124911DB29FD7
:0E157000700D811D1124911D0895F894FFCF78
:10157E0001000000000008022000537461727469BB
:10158E006E67205352414D20746573742E2E2E0AB1
:10159E000D005772697465207068617365206572FD
:1015AE00726F723A206578745F72616D5B25346478
:1015BE005D203D2025303258202873686F756C648D
:1015CE002062652025303258290A0D00526574724A
:1015DE00696576616C207068617365206572726FE3
:1015EE00723A206578745F72616D5B2534645D209C
:1015FE003D2025303258202873686F756C64206248
:10160E00652025303258290A0D005352414D207461
:10161E0065737420636F6D706C6574656420776993
:10162E007468200A253464206572726F72732069A3
:10163E006E20777269746520706861736520616EC3
:10164E0064200A253464206572726F727320696E8D
:10165E002072657472696576616C2070686173655D
:0E166E000A0A0D006C656E6774683D25640005
:00000001FF
