:100000000C944D040C946A040C946A040C946A04D5
:100010000C946A040C946A040C946A040C946A04A8
:100020000C946A040C946A040C946A040C946A0498
:100030000C946A040C946A040C946A040C946A0488
:100040000C946A040C946A040C946A040C946A0478
:100050000C946A040C946A040C946A040C946A0468
:100060000C946A040C946A040C946A040C946A0458
:10007000000000000000005E0000000E000E0028DE
:100080007C287C2808547C542026100864002854BE
:1000900028400000000E0000003C42000000423CEE
:1000A0000000005438540010107C101000806020B4
:1000B0000010101010000060600000201008040004
:1000C000003C423C0000447E40004462524C00220E
:1000D0004A4A360018147E10002E4A4A32003C4A22
:1000E0004A300002621A0600344A4A34000C525266
:1000F0003C00006C6C0000806C2C00000010284458
:1001000000282828280000442810000004520C0071
:100110003C425A1C007C12127C007E4A4A34003C4D
:10012000424224007E42423C007E4A4A42007E0A0D
:100130000A02003C425274007E08087E0000427EA3
:1001400042002040403E007E182442007E40404055
:10015000007E0C0C7E007E0C307E003C42423C0057
:100160007E12120C003C6242BC007E12324C002413
:100170004A52240000027E02003E40403E001E60C3
:10018000601E007E30307E006618186600000E701B
:100190000E0062524A4600007E42420004081020CF
:1001A000000042427E000004020400404040400043
:1001B000000204000030482878007E4848300030B3
:1001C000484800003048487E003068581000107CD5
:1001D00012040050A8A898007E0808700000487A11
:1001E00040000040807A007E1028400000427E409F
:1001F0000078101870007808087000304848300007
:10020000F848483000304848F80078080810005096
:1002100058682800083E48400038404078000038C0
:100220004038007860607800483030480018A040BE
:100230003800486858480000083C420000007E0032
:100240000000423C0800FFFFFFFFFF00000000002D
:100250005C00000C000C007C287C2858DC68002422
:1002600010480028542840000C00000078840084C6
:1002700078000054385400107C10008040000010BA
:100280001010000040000060100C00385438004886
:100290007C40004864580044542C001C107C005CD6
:1002A0005424003854240064140C0068542C004872
:1002B00054380000480000804800001028440028FE
:1002C000282800442810000454080038445C0078B2
:1002D0001478007C542800384428007C4438007C82
:1002E0005444007C140400384474007C107C0044A6
:1002F0007C440020403C007C106C007C4040007C32
:10030000187C0078103C00384438007C1408003811
:1003100044B8007C14680048542400047C04007C29
:10032000407C003C603C007C307C006C106C000C1D
:10033000700C0064544C00007C44000C10600044BD
:100340007C00000804080080808000000408003061
:100350004878007C4830003048480030487C003005
:100360006850001078140090A878007C0870005045
:10037000744000808074007C106800447C400078E9
:100380001078007808700030483000F828100030ED
:1003900048F8007810080050582800083C480038F9
:1003A000407800384038007820780048304800987D
:1003B000A078004868580010788400007C00008411
:1003C00078100008040804000000000000005F002E
:1003D000000007000700147F147F14242A7F2A12CC
:1003E00023130864623649552250000503000000BB
:1003F0001C2241000041221C00082A1C2A0808086F
:100400003E08080050300000080808080800606036
:10041000000020100804023E5149453E00427F4042
:100420000042615149462141454B311814127F1059
:1004300027454545393C4A4949300171090503368C
:1004400049494936064949291E00363600000056FA
:10045000360000000814224114141414144122140C
:1004600008000201510906324979413E7E111111FD
:100470007E7F494949363E414141227F4141221C0C
:100480007F494949417F090901013E414151327F7C
:100490000808087F00417F41002040413F017F085C
:1004A0001422417F404040407F0204027F7F0408C5
:1004B000107F3E4141413E7F090909063E415121DD
:1004C0005E7F09192946464949493101017F0101E9
:1004D0003F4040403F1F2040201F7F2018207F6367
:1004E0001408146303047804036151494543000070
:1004F0007F4141020408102041417F0000040201B5
:100500000204404040404000010204002054545482
:10051000787F484444383844444420384444487F31
:100520003854545418087E090102081454543C7F6E
:100530000804047800447D40002040443D00007FD2
:1005400010284400417F40007C041804787C080493
:10055000047838444444387C1414140808141418DB
:100560007C7C080404084854545420043F44402030
:100570003C4040207C1C2040201C3C4030403C44FF
:10058000281028440C5050503C4464544C440008FB
:1005900036410000007F00000041360800020103E0
:1005A0000201000000000000000000065F5F06007E
:1005B00000000007070007070000147F7F147F7FFB
:1005C0001400242E6B6B3A120000466630180C663D
:1005D0006200307A4F5D377A48000407030000005C
:1005E0000000001C3E63410000000041633E1C000F
:1005F0000000082A3E1C1C3E2A0808083E3E080847
:10060000000000A0E06000000000080808080808DA
:10061000000000006060000000006030180C06035D
:1006200001003E7F594D7F3E000042427F7F4040A7
:100630000000627359496F660000226349497F36A2
:100640000000181C16137F7F1000276745457D3971
:1006500000003C7E4B4979300000036371190F079D
:100660000000367F49497F360000064F49693F1E2A
:10067000000000006C6C0000000000A0EC6C0000AA
:100680000000081C366341000000141414141414F4
:100690000000004163361C080000020351590F0698
:1006A00000003E7F415D5D1F1E007C7E13137E7C3B
:1006B0000000417F7F49497F36001C3E6341416312
:1006C0002200417F7F41637F1C00417F7F495D4164
:1006D0006300417F7F491D0103001C3E634151734C
:1006E00072007F7F08087F7F000000417F7F41000C
:1006F0000000307040417F3F0100417F7F081C7740
:100700006300417F7F41406070007F7F060C067F61
:100710007F007F7F060C187F7F001C3E6341633E95
:100720001C00417F7F49090F06001E3F21717F5E3B
:100730000000417F7F19396F460026674D597B3293
:10074000000003417F7F410300007F7F40407F7FA7
:1007500000001F3F60603F1F00007F7F3018307F28
:100760007F0063771C081C776300074F78784F077A
:1007700000006773594D47637100007F7F4141005E
:1007800000000103060C183060000041417F7F002B
:100790000000080C0603060C080080808080808022
:1007A00080800000030704000000207454543C784B
:1007B0004000413F7F44447C3800387C44446C28EE
:1007C0000000307848493F7F4000387C54545C1822
:1007D0000000487E7F490302000098BCA4A4F87C76
:1007E0000400417F7F08047C780000447D7D400048
:1007F000000040C484FD7D000000417F7F10386C04
:10080000440000417F7F400000007C7C0C180C7C81
:1008100078007C7C04047C780000387C44447C387C
:10082000000084FCF8A4243C1800183C24A4F8FC24
:100830008400447C78441C180000485C54547424A0
:10084000000000043E7F442400003C7C40403C7C8F
:1008500040001C3C60603C1C00003C7C6030607CC4
:100860003C00446C3810386C44009CBCA0A0FC7C5C
:1008700000004C64745C4C64000008083E77414101
:10088000000000000077770000004141773E080833
:100890000000020301030203010011241FBECFEF79
:1008A000D4E0DEBFCDBF11E0A0E0B1E0EEE4F1E1C5
:1008B00002C005900D92A034B107D9F721E0A0E461
:1008C000B1E001C01D92AE34B207E1F70E946C04A2
:1008D0000C94A5080C9400000E9483040E949104CB
:1008E0000E9438050E94C4050E94BD050E94C206F0
:1008F00080E090E008955D9BFECF8CB908955F9BEA
:10090000FECF8CB1089510BC8FE189B988E18AB916
:1009100086E880BD6FE774E08BE794E00E940A07E9
:10092000089585B7806885BF80B7806280BF0895CD
:10093000E0E0F4E1808389EF90E00197F1F700C0F7
:1009400000008081089585E090E00E94980488234B
:100950005CF024E68202C00111246DE770E00E9481
:10096000E2068CE9860F0895082E000C990B9C0175
:1009700023583F4F44E6429FC001439F900D1124EE
:100980006DE770E00E94E206862F089584E090E013
:100990000E94980488235CF024E68202C00111249E
:1009A0006DE770E00E94E2068CE9860F0895082E3C
:1009B000000C990B9C0123583F4F44E6429FC00115
:1009C000439F900D11246DE770E00E94E206862F90
:1009D000089587E090E00E9498048F3F5CF422E342
:1009E0008202C00111246DE770E00E94E20684E6F5
:1009F000860F089522E38202C00111246DE770E0A2
:100A00000E94E206862F089586E090E00E949804F6
:100A10008F3F5CF422E38202C00111246DE770E095
:100A20000E94E20684E6860F089522E38202C00156
:100A300011246DE770E00E94E206862F089517BA30
:100A400086B3882369F099EF980F943058F09EEFA1
:100A5000980F953048F08B50843040F080E0089536
:100A60008AE6089582E708958CE6089582E608955F
:100A7000E0E0F0E18EEA808381EA80838AED808382
:100A800082E1808388EC808388EA80838FE380839F
:100A900085ED808380E8808381E8808380E58083A2
:100AA00089ED808381E2808380E2808310828BEDF8
:100AB000808380E380838DEA8083108284EA808350
:100AC00086EA80838FEA80830895809300100895DA
:100AD00080930012089590E09C01220F331F220F93
:100AE000331F820F931F20E030E0805A9109A0E06D
:100AF000B2E1FC01E20FF31FE059FF4FE491EC93E8
:100B00002F5F3F4F25303105A1F708951F93CF93F5
:100B1000DF93EC0110E007C0FE01E20FF31F8081BC
:100B20000E946B051F5F212F30E0FE010190002025
:100B3000E9F73197EC1BFD0B2E173F0768F3DF91A8
:100B4000CF911F910895E0E0F0E192E290838083DD
:100B500097E0908390E09093430180934201089541
:100B6000E0E0F0E191E2908380839FE7908390E062
:100B70009093410180934001089580E00E94B00568
:100B800080E00E94A305089528E030E050E840E0AE
:100B9000E0E0F2E106C010820197E9F72150310947
:100BA00019F0852F942FF7CF08958036910574F0B2
:100BB0008091420190914301009721F4862F0E9479
:100BC000A305089581500E94A3050895813A9F4F7F
:100BD00074F480914201909143018617970721F4A4
:100BE00080E00E94A30508958F5F0E94A3050895E9
:100BF0008B3591057CF080914001909141018B37BC
:100C0000910524F080E00E94B00508958B5F0E945A
:100C1000B0050895863A9F4F74F4809140019091F9
:100C200041018530910524F48FE70E94B0050895B5
:100C300085500E94B00508950E94A30580E00E949F
:100C4000B00580E890E0E0E0F2E110820197E9F77A
:100C500008950E94C4058EE191E00E94860581E01E
:100C60000E94A30580E00E94B0058BE291E00E9403
:100C7000860582E00E94A30580E00E94B00584E31F
:100C800091E00E94860580E00E94A30580E00E941A
:100C9000B0050E94C60462E070E0082E000C990BBB
:100CA0000E94D5058091420190914301009709F57A
:100CB00080E090E00E941C062FE986E891E0215038
:100CC00080409040E1F700C0000080E00E94A30552
:100CD00080E00E94B0058EE191E00E9486052FE938
:100CE00086E891E0215080409040E1F700C000008C
:100CF000D0CF8130910509F581E090E00E941C067B
:100D00002FE986E891E0215080409040E1F700C053
:100D1000000081E00E94A30580E00E94B0058BE204
:100D200091E00E9486052FE986E891E021508040FD
:100D30009040E1F700C00000ACCF029709F0A9CFC6
:100D400082E090E00E941C062FE986E891E02150A5
:100D500080409040E1F700C0000082E00E94A305BF
:100D600080E00E94B00584E391E00E9486052FE9AF
:100D700086E891E0215080409040E1F700C00000FB
:100D800088CF0895C0E0D0E000E010E002C0C02F9E
:100D9000D12F9FE72AE186E0915020408040E1F783
:100DA00000C000000E94BD05FE01EE0FFF1FE050D5
:100DB000FF4F808191810E948605C230D10539F3B1
:100DC0002196E7CF97FB072E16F4009407D077FD06
:100DD00009D00E94F60607FC05D03EF49095819557
:100DE0009F4F0895709561957F4F0895AA1BBB1B77
:100DF00051E107C0AA1FBB1FA617B70710F0A61B1B
:100E0000B70B881F991F5A95A9F780959095BC013B
:100E1000CD0108950F931F93CF93DF93009731F483
:100E20006115710519F480E090E03AC08B01EC0186
:100E30006EE070E081E090E00E945507FC01892B94
:100E400091F380E883830115110571F01387028700
:100E500081E883838091440190914501892B21F49D
:100E6000F0934501E09344012097C9F0D187C087F2
:100E70008381826083838091460190914701892B11
:100E800071F4F0934701E0934601809148019091FD
:100E90004901892B21F4F0934901E0934801CF01E6
:100EA000DF91CF911F910F9108950F931F93CF93CF
:100EB000DF93869F8001879F100D969F100D112450
:100EC000C8010E947107EC01009729F0A80160E0B9
:100ED00070E00E949E08CE01DF91CF911F910F918B
:100EE0000895CF93DF938230910510F482E090E073
:100EF000E0914C01F0914D0120E030E0C0E0D0E005
:100F0000309711F14081518148175907C0F04817B7
:100F1000590761F482819381209719F09B838A831A
:100F20002BC090934D0180934C0126C021153105B3
:100F300019F04217530718F49A01BE01DF01EF01BF
:100F40000280F381E02DDCCF2115310509F1281B4A
:100F5000390B2430310590F412968D919C911397A2
:100F60006115710521F0FB019383828304C0909386
:100F70004D0180934C01FD01329644C0FD01E20F0A
:100F8000F31F81939193225031092D933C933AC0E2
:100F900020914A0130914B01232B41F4209108010B
:100FA0003091090130934B0120934A0120910601B1
:100FB000309107012115310541F42DB73EB740911D
:100FC0000A0150910B01241B350BE0914A01F0916D
:100FD0004B01E217F307A0F42E1B3F0B281739072C
:100FE00078F0AC014E5F5F4F2417350748F04E0F85
:100FF0005F1F50934B0140934A018193919302C02C
:10100000E0E0F0E0CF01DF91CF9108950F931F93BF
:10101000CF93DF93009709F48CC0FC0132971382C1
:10102000128200914C0110914D010115110581F4BE
:1010300020813181820F931F20914A0130914B0111
:101040002817390779F5F0934B01E0934A0171C0F5
:10105000D80140E050E0AE17BF0750F412962D9132
:101060003C911397AD012115310509F1D901F3CF59
:101070009D01DA013383228360817181860F971F7E
:101080008217930769F4EC0128813981260F371FF5
:101090002E5F3F4F318320838A819B81938382839C
:1010A000452B29F4F0934D01E0934C0142C0139677
:1010B000FC93EE931297ED01499159919E01240FF3
:1010C000351FE217F30771F480819181840F951F1A
:1010D000029611969C938E938281938113969C9392
:1010E0008E931297E0E0F0E0D80112968D919C91DA
:1010F0001397009719F0F8018C01F6CF8D919C9110
:1011000098012E5F3F4F820F931F20914A0130912B
:101110004B012817390769F4309729F410924D01D3
:1011200010924C0102C01382128210934B01009363
:101130004A01DF91CF911F910F910895DC0101C009
:0E1140006D9341505040E0F70895F894FFCFB2
:10114E00180112010C0100004E0120004D656E7554
:10115E0033004D656E7532004D656E7531006769F1
:10116E00742070756C6C206F7574006769742063E1
:10117E006F6D6500676974206E6F20626162790021
:00000001FF
