:100000000C9438000C9442000C9442000C94420072
:100010000C9442000C9442000C9442000C94420058
:100020000C9442000C9442000C9442000C94420048
:100030000C9442000C9442000C9442000C94420038
:100040000C9442000C9442000C9442000C94420028
:100050000C9442000C9442000C9442000C94420018
:100060000C9442000C9442000C9442000C94420008
:1000700011241FBECFEFD4E0DEBFCDBF0E944400ED
:100080000C9455000C94000081E081BB82BBEFE131
:10009000FEE43197F1F700C0000012BAEFE1FEE490
:0E00A0003197F1F700C00000F1CFF894FFCFC8
:00000001FF
